{
  "contractName": "WishList",
  "abi": [
    {
      "constant": true,
      "inputs": [
        {
          "name": "",
          "type": "uint256"
        }
      ],
      "name": "gifts",
      "outputs": [
        {
          "name": "id",
          "type": "uint256"
        },
        {
          "name": "content",
          "type": "string"
        },
        {
          "name": "received",
          "type": "bool"
        }
      ],
      "payable": false,
      "stateMutability": "view",
      "type": "function",
      "signature": "0xd6065935"
    },
    {
      "constant": true,
      "inputs": [],
      "name": "giftCount",
      "outputs": [
        {
          "name": "",
          "type": "uint256"
        }
      ],
      "payable": false,
      "stateMutability": "view",
      "type": "function",
      "signature": "0xed700374"
    },
    {
      "inputs": [],
      "payable": false,
      "stateMutability": "nonpayable",
      "type": "constructor",
      "signature": "constructor"
    },
    {
      "anonymous": false,
      "inputs": [
        {
          "indexed": false,
          "name": "id",
          "type": "uint256"
        },
        {
          "indexed": false,
          "name": "content",
          "type": "string"
        },
        {
          "indexed": false,
          "name": "received",
          "type": "bool"
        }
      ],
      "name": "GiftCreated",
      "type": "event",
      "signature": "0x61ec247427d29c348f3c8c9b9b0fac22de44aed7a671ca5dc49d07e3f2347e4d"
    },
    {
      "anonymous": false,
      "inputs": [
        {
          "indexed": false,
          "name": "id",
          "type": "uint256"
        },
        {
          "indexed": false,
          "name": "received",
          "type": "bool"
        }
      ],
      "name": "GiftReceived",
      "type": "event",
      "signature": "0x60c679619b84853dcd888a6438b531f51411fc87ea03707520485493395fa4c3"
    },
    {
      "constant": false,
      "inputs": [
        {
          "name": "_content",
          "type": "string"
        }
      ],
      "name": "createGift",
      "outputs": [],
      "payable": false,
      "stateMutability": "nonpayable",
      "type": "function",
      "signature": "0xc9d5d14a"
    },
    {
      "constant": false,
      "inputs": [
        {
          "name": "_id",
          "type": "uint256"
        }
      ],
      "name": "toggleReceived",
      "outputs": [],
      "payable": false,
      "stateMutability": "nonpayable",
      "type": "function",
      "signature": "0x7c63f128"
    }
  ],
  "bytecode": "0x60806040526000805534801561001457600080fd5b5060408051808201909152600c81527f4661697279204c69676874730000000000000000000000000000000000000000602082015261005b90640100000000610060810204565b61021f565b60008054600190810180835560408051606081018252828152602080820187815282840187905293865284815291909420845181559151805192936100ad93908501929190910190610184565b5060408201518160020160006101000a81548160ff0219169083151502179055509050507f61ec247427d29c348f3c8c9b9b0fac22de44aed7a671ca5dc49d07e3f2347e4d600054826000604051808481526020018060200183151515158152602001828103825284818151815260200191508051906020019080838360005b8381101561014557818101518382015260200161012d565b50505050905090810190601f1680156101725780820380516001836020036101000a031916815260200191505b5094505050505060405180910390a150565b828054600181600116156101000203166002900490600052602060002090601f016020900481019282601f106101c557805160ff19168380011785556101f2565b828001600101855582156101f2579182015b828111156101f25782518255916020019190600101906101d7565b506101fe929150610202565b5090565b61021c91905b808211156101fe5760008155600101610208565b90565b6106448061022e6000396000f3fe6080604052600436106100615763ffffffff7c01000000000000000000000000000000000000000000000000000000006000350416637c63f1288114610066578063c9d5d14a14610092578063d606593514610145578063ed700374146101f9575b600080fd5b34801561007257600080fd5b506100906004803603602081101561008957600080fd5b5035610220565b005b34801561009e57600080fd5b50610090600480360360208110156100b557600080fd5b8101906020810181356401000000008111156100d057600080fd5b8201836020820111156100e257600080fd5b8035906020019184600183028401116401000000008311171561010457600080fd5b91908080601f016020809104026020016040519081016040528093929190818152602001838380828437600092019190915250929550610380945050505050565b34801561015157600080fd5b5061016f6004803603602081101561016857600080fd5b50356104a4565b604051808481526020018060200183151515158152602001828103825284818151815260200191508051906020019080838360005b838110156101bc5781810151838201526020016101a4565b50505050905090810190601f1680156101e95780820380516001836020036101000a031916815260200191505b5094505050505060405180910390f35b34801561020557600080fd5b5061020e610553565b60408051918252519081900360200190f35b610228610559565b60008281526001602081815260409283902083516060810185528154815281840180548651600296821615610100026000190190911695909504601f810185900485028601850190965285855290949193858401939092908301828280156102d15780601f106102a6576101008083540402835291602001916102d1565b820191906000526020600020905b8154815290600101906020018083116102b457829003601f168201915b50505091835250506002919091015460ff161515602091820152604080830180511590526000858152600180845291902083518155838301518051949550859491936103229385019291019061057d565b50604091820151600291909101805460ff1916911515919091179055818101518151848152901515602082015281517f60c679619b84853dcd888a6438b531f51411fc87ea03707520485493395fa4c3929181900390910190a15050565b60008054600190810180835560408051606081018252828152602080820187815282840187905293865284815291909420845181559151805192936103cd9390850192919091019061057d565b5060408201518160020160006101000a81548160ff0219169083151502179055509050507f61ec247427d29c348f3c8c9b9b0fac22de44aed7a671ca5dc49d07e3f2347e4d600054826000604051808481526020018060200183151515158152602001828103825284818151815260200191508051906020019080838360005b8381101561046557818101518382015260200161044d565b50505050905090810190601f1680156104925780820380516001836020036101000a031916815260200191505b5094505050505060405180910390a150565b600160208181526000928352604092839020805481840180548651600296821615610100026000190190911695909504601f810185900485028601850190965285855290949193929091908301828280156105405780601f1061051557610100808354040283529160200191610540565b820191906000526020600020905b81548152906001019060200180831161052357829003601f168201915b5050506002909301549192505060ff1683565b60005481565b60606040519081016040528060008152602001606081526020016000151581525090565b828054600181600116156101000203166002900490600052602060002090601f016020900481019282601f106105be57805160ff19168380011785556105eb565b828001600101855582156105eb579182015b828111156105eb5782518255916020019190600101906105d0565b506105f79291506105fb565b5090565b61061591905b808211156105f75760008155600101610601565b9056fea165627a7a72305820f6e52facbabc60d79a5482099f8ddd9811d43a5b373ba8a9432e7ac71b5843060029",
  "source": "pragma solidity ^0.5.0;\r\n\r\ncontract WishList {\r\n  uint public giftCount = 0;\r\n\r\n  struct Gift {\r\n    uint id;\r\n    string content;\r\n    bool received;\r\n  }\r\n\r\n  mapping(uint => Gift) public gifts;\r\n\r\n  event GiftCreated(\r\n    uint id,\r\n    string content,\r\n    bool received\r\n  );\r\n\r\n  event GiftReceived(\r\n    uint id,\r\n    bool received\r\n  );\r\n\r\n  constructor() public {\r\n    createGift(\"Fairy Lights\");\r\n  }\r\n\r\n  function createGift(string memory _content) public {\r\n    giftCount ++;\r\n    gifts[giftCount] = Gift(giftCount, _content, false);\r\n    emit GiftCreated(giftCount, _content, false);\r\n  }\r\n\r\n  function toggleReceived(uint _id) public {\r\n    Gift memory _gift = gifts[_id];\r\n    _gift.received = !_gift.received;\r\n    gifts[_id] = _gift;\r\n    emit GiftReceived(_id, _gift.received);\r\n  }\r\n\r\n}",
  "sourcePath": "C:/Users/MIT/Desktop/WishList/contracts/Wishlist.sol",
  "compiler": {
    "name": "solc",
    "version": "0.5.0+commit.1d4f565a.Emscripten.clang"
  },
  "schemaVersion": "3.0.1",
  "updatedAt": "2021-03-06T09:49:23.731Z",
  "devdoc": {
    "methods": {}
  },
  "userdoc": {
    "methods": {}
  }
}